{
  "_format": "hh-sol-artifact-1",
  "contractName": "UniqueArtNFT",
  "sourceName": "contracts/UniqueArtNFT.sol",
  "abi": [
    {
      "inputs": [
        {
          "internalType": "string",
          "name": "name",
          "type": "string"
        },
        {
          "internalType": "string",
          "name": "symbol",
          "type": "string"
        },
        {
          "internalType": "string",
          "name": "promptDescription",
          "type": "string"
        }
      ],
      "stateMutability": "nonpayable",
      "type": "constructor"
    },
    {
      "anonymous": false,
      "inputs": [
        {
          "indexed": true,
          "internalType": "address",
          "name": "owner",
          "type": "address"
        },
        {
          "indexed": true,
          "internalType": "address",
          "name": "approved",
          "type": "address"
        },
        {
          "indexed": true,
          "internalType": "uint256",
          "name": "tokenId",
          "type": "uint256"
        }
      ],
      "name": "Approval",
      "type": "event"
    },
    {
      "anonymous": false,
      "inputs": [
        {
          "indexed": true,
          "internalType": "address",
          "name": "owner",
          "type": "address"
        },
        {
          "indexed": true,
          "internalType": "address",
          "name": "operator",
          "type": "address"
        },
        {
          "indexed": false,
          "internalType": "bool",
          "name": "approved",
          "type": "bool"
        }
      ],
      "name": "ApprovalForAll",
      "type": "event"
    },
    {
      "anonymous": false,
      "inputs": [
        {
          "indexed": false,
          "internalType": "uint256",
          "name": "_fromTokenId",
          "type": "uint256"
        },
        {
          "indexed": false,
          "internalType": "uint256",
          "name": "_toTokenId",
          "type": "uint256"
        }
      ],
      "name": "BatchMetadataUpdate",
      "type": "event"
    },
    {
      "anonymous": false,
      "inputs": [
        {
          "indexed": false,
          "internalType": "uint256",
          "name": "_tokenId",
          "type": "uint256"
        }
      ],
      "name": "MetadataUpdate",
      "type": "event"
    },
    {
      "anonymous": false,
      "inputs": [
        {
          "indexed": true,
          "internalType": "address",
          "name": "from",
          "type": "address"
        },
        {
          "indexed": true,
          "internalType": "address",
          "name": "to",
          "type": "address"
        },
        {
          "indexed": true,
          "internalType": "uint256",
          "name": "tokenId",
          "type": "uint256"
        }
      ],
      "name": "Transfer",
      "type": "event"
    },
    {
      "inputs": [
        {
          "internalType": "address",
          "name": "to",
          "type": "address"
        },
        {
          "internalType": "uint256",
          "name": "tokenId",
          "type": "uint256"
        }
      ],
      "name": "approve",
      "outputs": [],
      "stateMutability": "nonpayable",
      "type": "function"
    },
    {
      "inputs": [
        {
          "internalType": "address",
          "name": "owner",
          "type": "address"
        }
      ],
      "name": "balanceOf",
      "outputs": [
        {
          "internalType": "uint256",
          "name": "",
          "type": "uint256"
        }
      ],
      "stateMutability": "view",
      "type": "function"
    },
    {
      "inputs": [
        {
          "internalType": "uint256",
          "name": "tokenId",
          "type": "uint256"
        }
      ],
      "name": "getApproved",
      "outputs": [
        {
          "internalType": "address",
          "name": "",
          "type": "address"
        }
      ],
      "stateMutability": "view",
      "type": "function"
    },
    {
      "inputs": [],
      "name": "getArtDescription",
      "outputs": [
        {
          "internalType": "string",
          "name": "",
          "type": "string"
        }
      ],
      "stateMutability": "view",
      "type": "function"
    },
    {
      "inputs": [],
      "name": "getContractBalance",
      "outputs": [
        {
          "internalType": "uint256",
          "name": "",
          "type": "uint256"
        }
      ],
      "stateMutability": "view",
      "type": "function"
    },
    {
      "inputs": [
        {
          "internalType": "address",
          "name": "owner",
          "type": "address"
        },
        {
          "internalType": "address",
          "name": "operator",
          "type": "address"
        }
      ],
      "name": "isApprovedForAll",
      "outputs": [
        {
          "internalType": "bool",
          "name": "",
          "type": "bool"
        }
      ],
      "stateMutability": "view",
      "type": "function"
    },
    {
      "inputs": [
        {
          "internalType": "address",
          "name": "recipient",
          "type": "address"
        },
        {
          "internalType": "string",
          "name": "tokenURI",
          "type": "string"
        }
      ],
      "name": "mintArtNFT",
      "outputs": [
        {
          "internalType": "uint256",
          "name": "",
          "type": "uint256"
        }
      ],
      "stateMutability": "nonpayable",
      "type": "function"
    },
    {
      "inputs": [],
      "name": "name",
      "outputs": [
        {
          "internalType": "string",
          "name": "",
          "type": "string"
        }
      ],
      "stateMutability": "view",
      "type": "function"
    },
    {
      "inputs": [
        {
          "internalType": "uint256",
          "name": "tokenId",
          "type": "uint256"
        }
      ],
      "name": "ownerOf",
      "outputs": [
        {
          "internalType": "address",
          "name": "",
          "type": "address"
        }
      ],
      "stateMutability": "view",
      "type": "function"
    },
    {
      "inputs": [
        {
          "internalType": "address",
          "name": "from",
          "type": "address"
        },
        {
          "internalType": "address",
          "name": "to",
          "type": "address"
        },
        {
          "internalType": "uint256",
          "name": "tokenId",
          "type": "uint256"
        }
      ],
      "name": "safeTransferFrom",
      "outputs": [],
      "stateMutability": "nonpayable",
      "type": "function"
    },
    {
      "inputs": [
        {
          "internalType": "address",
          "name": "from",
          "type": "address"
        },
        {
          "internalType": "address",
          "name": "to",
          "type": "address"
        },
        {
          "internalType": "uint256",
          "name": "tokenId",
          "type": "uint256"
        },
        {
          "internalType": "bytes",
          "name": "data",
          "type": "bytes"
        }
      ],
      "name": "safeTransferFrom",
      "outputs": [],
      "stateMutability": "nonpayable",
      "type": "function"
    },
    {
      "inputs": [
        {
          "internalType": "address",
          "name": "operator",
          "type": "address"
        },
        {
          "internalType": "bool",
          "name": "approved",
          "type": "bool"
        }
      ],
      "name": "setApprovalForAll",
      "outputs": [],
      "stateMutability": "nonpayable",
      "type": "function"
    },
    {
      "inputs": [
        {
          "internalType": "bytes4",
          "name": "interfaceId",
          "type": "bytes4"
        }
      ],
      "name": "supportsInterface",
      "outputs": [
        {
          "internalType": "bool",
          "name": "",
          "type": "bool"
        }
      ],
      "stateMutability": "view",
      "type": "function"
    },
    {
      "inputs": [],
      "name": "symbol",
      "outputs": [
        {
          "internalType": "string",
          "name": "",
          "type": "string"
        }
      ],
      "stateMutability": "view",
      "type": "function"
    },
    {
      "inputs": [
        {
          "internalType": "uint256",
          "name": "tokenId",
          "type": "uint256"
        }
      ],
      "name": "tokenURI",
      "outputs": [
        {
          "internalType": "string",
          "name": "",
          "type": "string"
        }
      ],
      "stateMutability": "view",
      "type": "function"
    },
    {
      "inputs": [
        {
          "internalType": "address",
          "name": "from",
          "type": "address"
        },
        {
          "internalType": "address",
          "name": "to",
          "type": "address"
        },
        {
          "internalType": "uint256",
          "name": "tokenId",
          "type": "uint256"
        }
      ],
      "name": "transferFrom",
      "outputs": [],
      "stateMutability": "nonpayable",
      "type": "function"
    }
  ],
  "bytecode": "0x60806040523480156200001157600080fd5b5060405162002ea238038062002ea28339818101604052810190620000379190620001b1565b82828160009080519060200190620000519291906200008f565b5080600190805190602001906200006a9291906200008f565b5050508060089080519060200190620000859291906200008f565b50505050620003c2565b8280546200009d90620002e7565b90600052602060002090601f016020900481019282620000c157600085556200010d565b82601f10620000dc57805160ff19168380011785556200010d565b828001600101855582156200010d579182015b828111156200010c578251825591602001919060010190620000ef565b5b5090506200011c919062000120565b5090565b5b808211156200013b57600081600090555060010162000121565b5090565b60006200015662000150846200027b565b62000252565b9050828152602081018484840111156200016f57600080fd5b6200017c848285620002b1565b509392505050565b600082601f8301126200019657600080fd5b8151620001a88482602086016200013f565b91505092915050565b600080600060608486031215620001c757600080fd5b600084015167ffffffffffffffff811115620001e257600080fd5b620001f08682870162000184565b935050602084015167ffffffffffffffff8111156200020e57600080fd5b6200021c8682870162000184565b925050604084015167ffffffffffffffff8111156200023a57600080fd5b620002488682870162000184565b9150509250925092565b60006200025e62000271565b90506200026c82826200031d565b919050565b6000604051905090565b600067ffffffffffffffff82111562000299576200029862000382565b5b620002a482620003b1565b9050602081019050919050565b60005b83811015620002d1578082015181840152602081019050620002b4565b83811115620002e1576000848401525b50505050565b600060028204905060018216806200030057607f821691505b6020821081141562000317576200031662000353565b5b50919050565b6200032882620003b1565b810181811067ffffffffffffffff821117156200034a576200034962000382565b5b80604052505050565b7f4e487b7100000000000000000000000000000000000000000000000000000000600052602260045260246000fd5b7f4e487b7100000000000000000000000000000000000000000000000000000000600052604160045260246000fd5b6000601f19601f8301169050919050565b612ad080620003d26000396000f3fe608060405234801561001057600080fd5b50600436106101005760003560e01c806370a0823111610097578063c87b56dd11610066578063c87b56dd146102ab578063debd18a8146102db578063e534ee4a1461030b578063e985e9c51461032957610100565b806370a082311461022557806395d89b4114610255578063a22cb46514610273578063b88d4fde1461028f57610100565b806323b872dd116100d357806323b872dd1461019f57806342842e0e146101bb5780636352211e146101d75780636f9fb98a1461020757610100565b806301ffc9a71461010557806306fdde0314610135578063081812fc14610153578063095ea7b314610183575b600080fd5b61011f600480360381019061011a9190611f7e565b610359565b60405161012c91906122f8565b60405180910390f35b61013d6103ba565b60405161014a9190612313565b60405180910390f35b61016d60048036038101906101689190611fd0565b61044c565b60405161017a9190612291565b60405180910390f35b61019d60048036038101906101989190611f42565b610492565b005b6101b960048036038101906101b49190611de8565b6105aa565b005b6101d560048036038101906101d09190611de8565b61060a565b005b6101f160048036038101906101ec9190611fd0565b61062a565b6040516101fe9190612291565b60405180910390f35b61020f6106b1565b60405161021c91906124b5565b60405180910390f35b61023f600480360381019061023a9190611d83565b6106b9565b60405161024c91906124b5565b60405180910390f35b61025d610771565b60405161026a9190612313565b60405180910390f35b61028d60048036038101906102889190611eb2565b610803565b005b6102a960048036038101906102a49190611e37565b610819565b005b6102c560048036038101906102c09190611fd0565b61087b565b6040516102d29190612313565b60405180910390f35b6102f560048036038101906102f09190611eee565b61098e565b60405161030291906124b5565b60405180910390f35b6103136109c6565b6040516103209190612313565b60405180910390f35b610343600480360381019061033e9190611dac565b610a58565b60405161035091906122f8565b60405180910390f35b6000634906490660e01b7bffffffffffffffffffffffffffffffffffffffffffffffffffffffff1916827bffffffffffffffffffffffffffffffffffffffffffffffffffffffff191614806103b357506103b282610aec565b5b9050919050565b6060600080546103c990612650565b80601f01602080910402602001604051908101604052809291908181526020018280546103f590612650565b80156104425780601f1061041757610100808354040283529160200191610442565b820191906000526020600020905b81548152906001019060200180831161042557829003601f168201915b5050505050905090565b600061045782610bce565b6004600083815260200190815260200160002060009054906101000a900473ffffffffffffffffffffffffffffffffffffffff169050919050565b600061049d8261062a565b90508073ffffffffffffffffffffffffffffffffffffffff168373ffffffffffffffffffffffffffffffffffffffff16141561050e576040517f08c379a000000000000000000000000000000000000000000000000000000000815260040161050590612475565b60405180910390fd5b8073ffffffffffffffffffffffffffffffffffffffff1661052d610c19565b73ffffffffffffffffffffffffffffffffffffffff16148061055c575061055b81610556610c19565b610a58565b5b61059b576040517f08c379a000000000000000000000000000000000000000000000000000000000815260040161059290612495565b60405180910390fd5b6105a58383610c21565b505050565b6105bb6105b5610c19565b82610cda565b6105fa576040517f08c379a00000000000000000000000000000000000000000000000000000000081526004016105f190612335565b60405180910390fd5b610605838383610d6f565b505050565b61062583838360405180602001604052806000815250610819565b505050565b60008061063683611069565b9050600073ffffffffffffffffffffffffffffffffffffffff168173ffffffffffffffffffffffffffffffffffffffff1614156106a8576040517f08c379a000000000000000000000000000000000000000000000000000000000815260040161069f90612455565b60405180910390fd5b80915050919050565b600047905090565b60008073ffffffffffffffffffffffffffffffffffffffff168273ffffffffffffffffffffffffffffffffffffffff16141561072a576040517f08c379a0000000000000000000000000000000000000000000000000000000008152600401610721906123f5565b60405180910390fd5b600360008373ffffffffffffffffffffffffffffffffffffffff1673ffffffffffffffffffffffffffffffffffffffff168152602001908152602001600020549050919050565b60606001805461078090612650565b80601f01602080910402602001604051908101604052809291908181526020018280546107ac90612650565b80156107f95780601f106107ce576101008083540402835291602001916107f9565b820191906000526020600020905b8154815290600101906020018083116107dc57829003601f168201915b5050505050905090565b61081561080e610c19565b83836110a6565b5050565b61082a610824610c19565b83610cda565b610869576040517f08c379a000000000000000000000000000000000000000000000000000000000815260040161086090612335565b60405180910390fd5b61087584848484611213565b50505050565b606061088682610bce565b60006006600084815260200190815260200160002080546108a690612650565b80601f01602080910402602001604051908101604052809291908181526020018280546108d290612650565b801561091f5780601f106108f45761010080835404028352916020019161091f565b820191906000526020600020905b81548152906001019060200180831161090257829003601f168201915b50505050509050600061093061126f565b9050600081511415610946578192505050610989565b60008251111561097b57808260405160200161096392919061226d565b60405160208183030381529060405292505050610989565b61098484611286565b925050505b919050565b600061099a60076112ee565b60006109a66007611304565b90506109b28482611312565b6109bc8184611530565b8091505092915050565b6060600880546109d590612650565b80601f0160208091040260200160405190810160405280929190818152602001828054610a0190612650565b8015610a4e5780601f10610a2357610100808354040283529160200191610a4e565b820191906000526020600020905b815481529060010190602001808311610a3157829003601f168201915b5050505050905090565b6000600560008473ffffffffffffffffffffffffffffffffffffffff1673ffffffffffffffffffffffffffffffffffffffff16815260200190815260200160002060008373ffffffffffffffffffffffffffffffffffffffff1673ffffffffffffffffffffffffffffffffffffffff16815260200190815260200160002060009054906101000a900460ff16905092915050565b60007f80ac58cd000000000000000000000000000000000000000000000000000000007bffffffffffffffffffffffffffffffffffffffffffffffffffffffff1916827bffffffffffffffffffffffffffffffffffffffffffffffffffffffff19161480610bb757507f5b5e139f000000000000000000000000000000000000000000000000000000007bffffffffffffffffffffffffffffffffffffffffffffffffffffffff1916827bffffffffffffffffffffffffffffffffffffffffffffffffffffffff1916145b80610bc75750610bc6826115db565b5b9050919050565b610bd781611645565b610c16576040517f08c379a0000000000000000000000000000000000000000000000000000000008152600401610c0d90612455565b60405180910390fd5b50565b600033905090565b816004600083815260200190815260200160002060006101000a81548173ffffffffffffffffffffffffffffffffffffffff021916908373ffffffffffffffffffffffffffffffffffffffff160217905550808273ffffffffffffffffffffffffffffffffffffffff16610c948361062a565b73ffffffffffffffffffffffffffffffffffffffff167f8c5be1e5ebec7d5bd14f71427d1e84f3dd0314c0f7b2291e5b200ac8c7c3b92560405160405180910390a45050565b600080610ce68361062a565b90508073ffffffffffffffffffffffffffffffffffffffff168473ffffffffffffffffffffffffffffffffffffffff161480610d285750610d278185610a58565b5b80610d6657508373ffffffffffffffffffffffffffffffffffffffff16610d4e8461044c565b73ffffffffffffffffffffffffffffffffffffffff16145b91505092915050565b8273ffffffffffffffffffffffffffffffffffffffff16610d8f8261062a565b73ffffffffffffffffffffffffffffffffffffffff1614610de5576040517f08c379a0000000000000000000000000000000000000000000000000000000008152600401610ddc90612375565b60405180910390fd5b600073ffffffffffffffffffffffffffffffffffffffff168273ffffffffffffffffffffffffffffffffffffffff161415610e55576040517f08c379a0000000000000000000000000000000000000000000000000000000008152600401610e4c906123b5565b60405180910390fd5b610e628383836001611686565b8273ffffffffffffffffffffffffffffffffffffffff16610e828261062a565b73ffffffffffffffffffffffffffffffffffffffff1614610ed8576040517f08c379a0000000000000000000000000000000000000000000000000000000008152600401610ecf90612375565b60405180910390fd5b6004600082815260200190815260200160002060006101000a81549073ffffffffffffffffffffffffffffffffffffffff02191690556001600360008573ffffffffffffffffffffffffffffffffffffffff1673ffffffffffffffffffffffffffffffffffffffff168152602001908152602001600020600082825403925050819055506001600360008473ffffffffffffffffffffffffffffffffffffffff1673ffffffffffffffffffffffffffffffffffffffff16815260200190815260200160002060008282540192505081905550816002600083815260200190815260200160002060006101000a81548173ffffffffffffffffffffffffffffffffffffffff021916908373ffffffffffffffffffffffffffffffffffffffff160217905550808273ffffffffffffffffffffffffffffffffffffffff168473ffffffffffffffffffffffffffffffffffffffff167fddf252ad1be2c89b69c2b068fc378daa952ba7f163c4a11628f55a4df523b3ef60405160405180910390a4611064838383600161168c565b505050565b60006002600083815260200190815260200160002060009054906101000a900473ffffffffffffffffffffffffffffffffffffffff169050919050565b8173ffffffffffffffffffffffffffffffffffffffff168373ffffffffffffffffffffffffffffffffffffffff161415611115576040517f08c379a000000000000000000000000000000000000000000000000000000000815260040161110c906123d5565b60405180910390fd5b80600560008573ffffffffffffffffffffffffffffffffffffffff1673ffffffffffffffffffffffffffffffffffffffff16815260200190815260200160002060008473ffffffffffffffffffffffffffffffffffffffff1673ffffffffffffffffffffffffffffffffffffffff16815260200190815260200160002060006101000a81548160ff0219169083151502179055508173ffffffffffffffffffffffffffffffffffffffff168373ffffffffffffffffffffffffffffffffffffffff167f17307eab39ab6107e8899845ad3d59bd9653f200f220920489ca2b5937696c318360405161120691906122f8565b60405180910390a3505050565b61121e848484610d6f565b61122a84848484611692565b611269576040517f08c379a000000000000000000000000000000000000000000000000000000000815260040161126090612355565b60405180910390fd5b50505050565b606060405180602001604052806000815250905090565b606061129182610bce565b600061129b61126f565b905060008151116112bb57604051806020016040528060008152506112e6565b806112c584611829565b6040516020016112d692919061226d565b6040516020818303038152906040525b915050919050565b6001816000016000828254019250508190555050565b600081600001549050919050565b600073ffffffffffffffffffffffffffffffffffffffff168273ffffffffffffffffffffffffffffffffffffffff161415611382576040517f08c379a000000000000000000000000000000000000000000000000000000000815260040161137990612435565b60405180910390fd5b61138b81611645565b156113cb576040517f08c379a00000000000000000000000000000000000000000000000000000000081526004016113c290612395565b60405180910390fd5b6113d9600083836001611686565b6113e281611645565b15611422576040517f08c379a000000000000000000000000000000000000000000000000000000000815260040161141990612395565b60405180910390fd5b6001600360008473ffffffffffffffffffffffffffffffffffffffff1673ffffffffffffffffffffffffffffffffffffffff16815260200190815260200160002060008282540192505081905550816002600083815260200190815260200160002060006101000a81548173ffffffffffffffffffffffffffffffffffffffff021916908373ffffffffffffffffffffffffffffffffffffffff160217905550808273ffffffffffffffffffffffffffffffffffffffff16600073ffffffffffffffffffffffffffffffffffffffff167fddf252ad1be2c89b69c2b068fc378daa952ba7f163c4a11628f55a4df523b3ef60405160405180910390a461152c60008383600161168c565b5050565b61153982611645565b611578576040517f08c379a000000000000000000000000000000000000000000000000000000000815260040161156f90612415565b60405180910390fd5b8060066000848152602001908152602001600020908051906020019061159f929190611ba7565b507ff8e1a15aba9398e019f0b49df1a4fde98ee17ae345cb5f6b5e2c27f5033e8ce7826040516115cf91906124b5565b60405180910390a15050565b60007f01ffc9a7000000000000000000000000000000000000000000000000000000007bffffffffffffffffffffffffffffffffffffffffffffffffffffffff1916827bffffffffffffffffffffffffffffffffffffffffffffffffffffffff1916149050919050565b60008073ffffffffffffffffffffffffffffffffffffffff1661166783611069565b73ffffffffffffffffffffffffffffffffffffffff1614159050919050565b50505050565b50505050565b60006116b38473ffffffffffffffffffffffffffffffffffffffff1661194d565b1561181c578373ffffffffffffffffffffffffffffffffffffffff1663150b7a026116dc610c19565b8786866040518563ffffffff1660e01b81526004016116fe94939291906122ac565b602060405180830381600087803b15801561171857600080fd5b505af192505050801561174957506040513d601f19601f820116820180604052508101906117469190611fa7565b60015b6117cc573d8060008114611779576040519150601f19603f3d011682016040523d82523d6000602084013e61177e565b606091505b506000815114156117c4576040517f08c379a00000000000000000000000000000000000000000000000000000000081526004016117bb90612355565b60405180910390fd5b805181602001fd5b63150b7a0260e01b7bffffffffffffffffffffffffffffffffffffffffffffffffffffffff1916817bffffffffffffffffffffffffffffffffffffffffffffffffffffffff191614915050611821565b600190505b949350505050565b60606000600161183884611970565b01905060008167ffffffffffffffff81111561187d577f4e487b7100000000000000000000000000000000000000000000000000000000600052604160045260246000fd5b6040519080825280601f01601f1916602001820160405280156118af5781602001600182028036833780820191505090505b509050600082602001820190505b600115611942578080600190039150507f3031323334353637383961626364656600000000000000000000000000000000600a86061a8153600a858161192c577f4e487b7100000000000000000000000000000000000000000000000000000000600052601260045260246000fd5b049450600085141561193d57611942565b6118bd565b819350505050919050565b6000808273ffffffffffffffffffffffffffffffffffffffff163b119050919050565b600080600090507a184f03e93ff9f4daa797ed6e38ed64bf6a1f01000000000000000083106119f4577a184f03e93ff9f4daa797ed6e38ed64bf6a1f01000000000000000083816119ea577f4e487b7100000000000000000000000000000000000000000000000000000000600052601260045260246000fd5b0492506040810190505b6d04ee2d6d415b85acef81000000008310611a57576d04ee2d6d415b85acef81000000008381611a4d577f4e487b7100000000000000000000000000000000000000000000000000000000600052601260045260246000fd5b0492506020810190505b662386f26fc100008310611aac57662386f26fc100008381611aa2577f4e487b7100000000000000000000000000000000000000000000000000000000600052601260045260246000fd5b0492506010810190505b6305f5e1008310611afb576305f5e1008381611af1577f4e487b7100000000000000000000000000000000000000000000000000000000600052601260045260246000fd5b0492506008810190505b6127108310611b46576127108381611b3c577f4e487b7100000000000000000000000000000000000000000000000000000000600052601260045260246000fd5b0492506004810190505b60648310611b8f5760648381611b85577f4e487b7100000000000000000000000000000000000000000000000000000000600052601260045260246000fd5b0492506002810190505b600a8310611b9e576001810190505b80915050919050565b828054611bb390612650565b90600052602060002090601f016020900481019282611bd55760008555611c1c565b82601f10611bee57805160ff1916838001178555611c1c565b82800160010185558215611c1c579182015b82811115611c1b578251825591602001919060010190611c00565b5b509050611c299190611c2d565b5090565b5b80821115611c46576000816000905550600101611c2e565b5090565b6000611c5d611c58846124f5565b6124d0565b905082815260208101848484011115611c7557600080fd5b611c8084828561260e565b509392505050565b6000611c9b611c9684612526565b6124d0565b905082815260208101848484011115611cb357600080fd5b611cbe84828561260e565b509392505050565b600081359050611cd581612a3e565b92915050565b600081359050611cea81612a55565b92915050565b600081359050611cff81612a6c565b92915050565b600081519050611d1481612a6c565b92915050565b600082601f830112611d2b57600080fd5b8135611d3b848260208601611c4a565b91505092915050565b600082601f830112611d5557600080fd5b8135611d65848260208601611c88565b91505092915050565b600081359050611d7d81612a83565b92915050565b600060208284031215611d9557600080fd5b6000611da384828501611cc6565b91505092915050565b60008060408385031215611dbf57600080fd5b6000611dcd85828601611cc6565b9250506020611dde85828601611cc6565b9150509250929050565b600080600060608486031215611dfd57600080fd5b6000611e0b86828701611cc6565b9350506020611e1c86828701611cc6565b9250506040611e2d86828701611d6e565b9150509250925092565b60008060008060808587031215611e4d57600080fd5b6000611e5b87828801611cc6565b9450506020611e6c87828801611cc6565b9350506040611e7d87828801611d6e565b925050606085013567ffffffffffffffff811115611e9a57600080fd5b611ea687828801611d1a565b91505092959194509250565b60008060408385031215611ec557600080fd5b6000611ed385828601611cc6565b9250506020611ee485828601611cdb565b9150509250929050565b60008060408385031215611f0157600080fd5b6000611f0f85828601611cc6565b925050602083013567ffffffffffffffff811115611f2c57600080fd5b611f3885828601611d44565b9150509250929050565b60008060408385031215611f5557600080fd5b6000611f6385828601611cc6565b9250506020611f7485828601611d6e565b9150509250929050565b600060208284031215611f9057600080fd5b6000611f9e84828501611cf0565b91505092915050565b600060208284031215611fb957600080fd5b6000611fc784828501611d05565b91505092915050565b600060208284031215611fe257600080fd5b6000611ff084828501611d6e565b91505092915050565b6120028161259a565b82525050565b612011816125ac565b82525050565b600061202282612557565b61202c818561256d565b935061203c81856020860161261d565b61204581612711565b840191505092915050565b600061205b82612562565b612065818561257e565b935061207581856020860161261d565b61207e81612711565b840191505092915050565b600061209482612562565b61209e818561258f565b93506120ae81856020860161261d565b80840191505092915050565b60006120c7602d8361257e565b91506120d282612722565b604082019050919050565b60006120ea60328361257e565b91506120f582612771565b604082019050919050565b600061210d60258361257e565b9150612118826127c0565b604082019050919050565b6000612130601c8361257e565b915061213b8261280f565b602082019050919050565b600061215360248361257e565b915061215e82612838565b604082019050919050565b600061217660198361257e565b915061218182612887565b602082019050919050565b600061219960298361257e565b91506121a4826128b0565b604082019050919050565b60006121bc602e8361257e565b91506121c7826128ff565b604082019050919050565b60006121df60208361257e565b91506121ea8261294e565b602082019050919050565b600061220260188361257e565b915061220d82612977565b602082019050919050565b600061222560218361257e565b9150612230826129a0565b604082019050919050565b6000612248603d8361257e565b9150612253826129ef565b604082019050919050565b61226781612604565b82525050565b60006122798285612089565b91506122858284612089565b91508190509392505050565b60006020820190506122a66000830184611ff9565b92915050565b60006080820190506122c16000830187611ff9565b6122ce6020830186611ff9565b6122db604083018561225e565b81810360608301526122ed8184612017565b905095945050505050565b600060208201905061230d6000830184612008565b92915050565b6000602082019050818103600083015261232d8184612050565b905092915050565b6000602082019050818103600083015261234e816120ba565b9050919050565b6000602082019050818103600083015261236e816120dd565b9050919050565b6000602082019050818103600083015261238e81612100565b9050919050565b600060208201905081810360008301526123ae81612123565b9050919050565b600060208201905081810360008301526123ce81612146565b9050919050565b600060208201905081810360008301526123ee81612169565b9050919050565b6000602082019050818103600083015261240e8161218c565b9050919050565b6000602082019050818103600083015261242e816121af565b9050919050565b6000602082019050818103600083015261244e816121d2565b9050919050565b6000602082019050818103600083015261246e816121f5565b9050919050565b6000602082019050818103600083015261248e81612218565b9050919050565b600060208201905081810360008301526124ae8161223b565b9050919050565b60006020820190506124ca600083018461225e565b92915050565b60006124da6124eb565b90506124e68282612682565b919050565b6000604051905090565b600067ffffffffffffffff8211156125105761250f6126e2565b5b61251982612711565b9050602081019050919050565b600067ffffffffffffffff821115612541576125406126e2565b5b61254a82612711565b9050602081019050919050565b600081519050919050565b600081519050919050565b600082825260208201905092915050565b600082825260208201905092915050565b600081905092915050565b60006125a5826125e4565b9050919050565b60008115159050919050565b60007fffffffff0000000000000000000000000000000000000000000000000000000082169050919050565b600073ffffffffffffffffffffffffffffffffffffffff82169050919050565b6000819050919050565b82818337600083830152505050565b60005b8381101561263b578082015181840152602081019050612620565b8381111561264a576000848401525b50505050565b6000600282049050600182168061266857607f821691505b6020821081141561267c5761267b6126b3565b5b50919050565b61268b82612711565b810181811067ffffffffffffffff821117156126aa576126a96126e2565b5b80604052505050565b7f4e487b7100000000000000000000000000000000000000000000000000000000600052602260045260246000fd5b7f4e487b7100000000000000000000000000000000000000000000000000000000600052604160045260246000fd5b6000601f19601f8301169050919050565b7f4552433732313a2063616c6c6572206973206e6f7420746f6b656e206f776e6560008201527f72206f7220617070726f76656400000000000000000000000000000000000000602082015250565b7f4552433732313a207472616e7366657220746f206e6f6e20455243373231526560008201527f63656976657220696d706c656d656e7465720000000000000000000000000000602082015250565b7f4552433732313a207472616e736665722066726f6d20696e636f72726563742060008201527f6f776e6572000000000000000000000000000000000000000000000000000000602082015250565b7f4552433732313a20746f6b656e20616c7265616479206d696e74656400000000600082015250565b7f4552433732313a207472616e7366657220746f20746865207a65726f2061646460008201527f7265737300000000000000000000000000000000000000000000000000000000602082015250565b7f4552433732313a20617070726f766520746f2063616c6c657200000000000000600082015250565b7f4552433732313a2061646472657373207a65726f206973206e6f74206120766160008201527f6c6964206f776e65720000000000000000000000000000000000000000000000602082015250565b7f45524337323155524953746f726167653a2055524920736574206f66206e6f6e60008201527f6578697374656e7420746f6b656e000000000000000000000000000000000000602082015250565b7f4552433732313a206d696e7420746f20746865207a65726f2061646472657373600082015250565b7f4552433732313a20696e76616c696420746f6b656e2049440000000000000000600082015250565b7f4552433732313a20617070726f76616c20746f2063757272656e74206f776e6560008201527f7200000000000000000000000000000000000000000000000000000000000000602082015250565b7f4552433732313a20617070726f76652063616c6c6572206973206e6f7420746f60008201527f6b656e206f776e6572206f7220617070726f76656420666f7220616c6c000000602082015250565b612a478161259a565b8114612a5257600080fd5b50565b612a5e816125ac565b8114612a6957600080fd5b50565b612a75816125b8565b8114612a8057600080fd5b50565b612a8c81612604565b8114612a9757600080fd5b5056fea2646970667358221220a5de3c3bc3f3ccf91a491baf84ea158d8a22cb99402a990ee8422f101e776a0d64736f6c63430008010033",
  "linkReferences": {},
  "deployedLinkReferences": {}
}